:020000040800F2
:10000000780400200D0200081502000817020008FD
:10001000190200081B0200081D0200080000000071
:100020000000000000000000000000001F020008A7
:100030002102000800000000230200082502000839
:1000400027020008270200082702000827020008EC
:1000500027020008270200082702000827020008DC
:1000600027020008270200082702000827020008CC
:1000700027020008270200082702000827020008BC
:1000800027020008270200082702000827020008AC
:10009000270200082702000827020008270200089C
:1000A000270200082702000827020008270200088C
:1000B000270200082702000827020008270200087C
:1000C000270200082702000827020008270200086C
:1000D000270200082702000827020008270200085C
:1000E000270200082702000827020008270200084C
:1000F000270200082702000827020008270200083C
:10010000270200082702000827020008270200082B
:10011000270200082702000827020008270200081B
:10012000270200082702000827020008270200080B
:1001300027020008270200082702000827020008FB
:1001400027020008270200082702000827020008EB
:1001500027020008270200082702000827020008DB
:1001600027020008270200082702000827020008CB
:1001700027020008270200082702000800000000EC
:1001800027020008270200082702000827020008AB
:10019000270200082702000827020008270200089B
:1001A000270200082702000827020008270200088B
:1001B000270200082702000827020008270200087B
:1001C000270200082702000800000000270200089C
:1001D000270200082702000827020008270200085B
:1001E000270200082702000827020008270200084B
:1001F0002702000827020008DFF80CD000F07AF888
:1002000000480047C51300087804002006488047CE
:1002100006480047FEE7FEE7FEE7FEE7FEE7FEE7EB
:10022000FEE7FEE7FEE7FEE769130008F9010008B4
:100230002DE9F05F0546002092469B46884606461B
:10024000814640241BE0284641464746224600F0AE
:1002500041F853465A46C01A914110D311461846E8
:10026000224600F028F82D1A67EB01084F46224677
:100270000120002100F01FF817EB00094E41201E5D
:10028000A4F10104DFDC484631462A464346BDE876
:10029000F09FD2B201E000F8012B491EFBD270475B
:1002A0000022F6E710B513460A4604461946FFF742
:1002B000F0FF204610BD202A04DB203A00FA02F1AC
:1002C000002070479140C2F1200320FA03F3194344
:1002D00090407047202A04DB203A21FA02F00021E6
:1002E000704721FA02F3D040C2F120029140084346
:1002F00019467047064C074D06E0E06840F00103E0
:1003000094E8070098471034AC42F6D3FFF778FF23
:10031000501400087014000870B5044600F000F98D
:100320000546601C02D004480078044400F0F8F848
:10033000401BA042FAD370BD040000202DE9F84F05
:1003400000224FF001094FF0030A4FF00F0E00BFDB
:100350000B6809FA02F42340A34270D14D68012DC5
:1003600005D0022D03D0112D01D0122D11D1856899
:100370005700CE680AFA07FC25EA0C05BE402E435A
:10038000866045680E79A543C6F3001696402E4355
:100390004660C56856008F680AFA06F4A543B74060
:1003A0002F43C7604D68022D01D0122D12D1D50800
:1003B0000F694FEA427C00EB8505AB462D6A4FEA98
:1003C000DC6C0EFA0CF807FA0CF725EA08052F4347
:1003D000CBF820700D79076805F00305A743B540F9
:1003E0003D4305604C68E40074D53D4C256845F4F8
:1003F00080452560246822F00307960704F48044B2
:100400000094384C360F2744D7F80848DFF8D8C096
:100410000EFA06F5604524EA050401D100252EE018
:10042000324DA84201D1012529E0314DA84201D128
:10043000022524E02F4DA84202D103251FE049E008
:100440002D4DA84201D1042519E02C4DA84201D11F
:10045000052514E02A4DA84201D106250FE0294DBB
:10046000A84201D107250AE0274DA84201D108255D
:1004700005E0264DA84201D1092500E00A25B54036
:10048000234E2543C7F808584D683468ED0324EA25
:10049000030400D51C431E4D34602D1D4E682C688E
:1004A000B60324EA030400D51C43194E2C60083619
:1004B0004D683468ED0224EA030400D51C43144D52
:1004C00034600C354E682C68B60224EA030400D56B
:1004D0001C432C60521C102AFFF43AAFBDE8F88F81
:1004E0004438024000300140000002400004024055
:1004F00000080240000C02400010024000140240BC
:1005000000180240001C024000200240002402406B
:10051000003C01400AB1816170470904FBE700001B
:10052000014880687047000004000020032010B5D7
:1005300000F04AF8002000F005F800F023F8002051
:1005400010BD000070B50D4D04464FF47A700C4A92
:1005500029781268B0FBF1F0B2FBF0F000F032FC49
:1005600048B9102C07D200222146501E00F00CF88A
:1005700000206C6070BD012070BD000004000020F0
:1005800010000020704700000E4BF0B41B680D46B1
:10059000C3F30223C3F10706042E00D90426191D54
:1005A000072901D2002300E0DB1E012404FA06F132
:1005B0009C40491E2940641E994014402143F0BCD0
:1005C00000F0E0BE0CED00E0064900F0070210B5B7
:1005D0004FF6FF040868044B204040EA022018430D
:1005E000086010BD0CED00E00000FA051848F8B5F1
:1005F000016841F0805101600068164C00F08050A5
:100600000090206840F480302060FFF789FF4FF4AD
:100610007A76054605E000BFFFF782FF401BB04237
:100620000FD86068C003F7D5206840F40030206020
:10063000FFF776FF054606E0FFF772FF401BB0426A
:1006400001D90320F8BD60688003F5D50020F8BD0E
:1006500040380240007000402DE9F04705000F4689
:1006600063D0444E306800F00F00B84209D23068C1
:1006700020F00F0038433060306800F00F00B842BF
:1006800053D128683C4C810712D5400703D5206818
:1006900040F4E05020602878000703D5206840F43B
:1006A00060402060A968206820F0F00008432060C6
:1006B0002878C0072AD0304968680839012810D046
:1006C0000968022810D0890700292EDA216821F054
:1006D000030101432160FFF723FF804641F288397F
:1006E0000DE009688903EFE78901EDE7FFF718FFDF
:1006F000A0EB0801494502D90320BDE8F0876868EE
:10070000216801F00C01B1EB800FEFD1306800F0EF
:100710000F00B8420BD9306820F00F00384330602A
:10072000306800F00F00B84201D00120E5E72878DA
:10073000400705D5E968206820F4E05008432060B0
:100740002878000706D52869216821F4604141EA2C
:10075000C000206000F018F82168084AC1F30311B6
:10076000515CC8400649086006480068FFF7EAFE89
:100770000020C2E7003C0240083802404014000854
:100780001000002008000020154910B51548096820
:1007900011F00C0213D01449042A0FD0082A0ED1EC
:1007A0000F4C241F2268236802F03F025B0207D52A
:1007B0002068C0F38810A0FB010106E0084610BDC8
:1007C0002168C1F38811A1FB00010023FFF730FD70
:1007D0002168C1F30141491C4900B0FBF1F010BD93
:1007E000083802400024F40040787D012DE9F84FDC
:1007F00004004FF000076ED02078DFF87CA3AAF148
:100800000408C007A8F104054CD0DAF800105046DF
:10081000C1F38101012908D00068C0F381000228DA
:100820000AD1D8F80000400206D52868800339D5DF
:1008300060680028DFD035E06068B0F5803F0BD0FD
:1008400010B1B0F5A02F11D0286820F480302860B6
:10085000286820F4802002E0286840F48030286076
:10086000606890B1FFF75CFE06460AE0286840F435
:1008700080202860F0E700BFFFF752FE801B64284D
:1008800072D828688003F7D50CE0FFF749FE0646CA
:1008900005E000BFFFF744FE801B6428F0D82868FD
:1008A0008003F7D42078800742D5DAF8001050464C
:1008B00011F00C0F08D00068C0F3810002280BD1A2
:1008C000D8F80000400207D42868800718D5E068EF
:1008D000012800D114E04AE1E0680028286817D018
:1008E00040F001002860FFF71BFE064605E000BF50
:1008F000FFF716FE801B0228C2D828688007F7D5AC
:100900002069296821F0F80141EAC00028600FE061
:1009100020F001002860FFF703FE064605E000BF57
:10092000FFF7FEFD801B02281ED828688007F7D439
:100930002078000729D5904861696C3000298146EC
:10094000016812D041F001010160FFF7E9FD0646A0
:1009500005E000BFFFF7E4FD801B022804D8D9F8AA
:1009600000008007F6D510E089E021F00101016068
:10097000FFF7D6FD064604E0FFF7D2FD801B0228F4
:100980007DD8D9F800008007F6D4207840076BD5D1
:10099000DFF8E49109F13809D9F80000C0000BD460
:1009A000D9F8001041F08051C9F80010D9F80000C2
:1009B000012700F08050009070480168C90512D4EA
:1009C0000168834641F480710160FFF7A9FD064686
:1009D00005E000BFFFF7A4FD801B64284FD8DBF8BB
:1009E0000000C005F6D5644EA068683601280AD01C
:1009F00008B1052811D0306820F00100306030685F
:100A000020F0040002E0306840F001003060A0688F
:100A1000A0B1FFF785FD83460CE0306840F004008C
:100A20003060F0E7FFF77CFDA0EB0B0141F288306E
:100A3000814268D830688007F4D50EE0FFF770FD7A
:100A4000834607E0FFF76CFDA0EB0B0141F2883015
:100A5000814258D830688007F4D42FB1D9F80010FB
:100A600021F08051C9F80010A069E0B3DAF8001055
:100A7000C1F3810102294DD00228286800E042E03C
:100A800020F08070286003D0FFF74AFD04463DE067
:100A9000FFF746FD064604E0FFF742FD801B0228F3
:100AA00031D828688001F7D4D4E90921DFF8D0C013
:100AB000D4E9070694F830304F0894F82C103043EE
:100AC0000CEB074444EA8212104340EA016040EA1A
:100AD0000370C8F80000286840F080702860FFF7B5
:100AE0001FFD044605E044E0FFF71AFD001B022845
:100AF00009D828688001F7D53BE000BFFFF710FD5B
:100B0000001B022802D90320BDE8F88F2868800165
:100B1000F4D42EE00128D8F8000028D0E16900F4D0
:100B200080028A4223D1216A00F03F028A421ED10C
:100B3000626A47F6C0710140B1EB821F17D1A16A0A
:100B40004FF0FF3200F4403302EB5101B3EB014FA1
:100B50000DD194F82C1000F07062B2EB016F06D149
:100B600094F8301000F0E040B0EB017F01D001209C
:100B7000CAE70020C8E700000838024000700040C3
:100B80000000FFFF2DE9F047040005D094F85D0058
:100B90000025A56218B107E00120BDE8F0872046D6
:100BA00084F85C5000F050F8022284F85D204FF485
:100BB000E0632068016821F040010160E06898422C
:100BC00001D9002101E04FF48051B0F5706F02D0DF
:100BD000984200D0A5624FF00109266B2EB99842C9
:100BE00001D9226301E0C4F83090D4E90468D4E963
:100BF0000102278B46EA0806A36A104307F400782F
:100C000030432668D4E907C240EA080040EA0C00F5
:100C1000CC460427104318433060D4F81880666B24
:100C2000606AE26807EA1847236830433A43104392
:100C3000084358602068C16921F40061C1612566DC
:100C400084F85DC00020A8E770472DE9F84F0446FE
:100C500090F85C0000271D460128164689460DD0F5
:100C60004FF0010B84F85CB0FFF75AFC804694F813
:100C70005D00BA46012804D002279DE00220BDE8AD
:100C8000F88FB9F1000F74D0002E72D0A268032142
:100C9000C4F83890A68784F85D10C4F860A0E68791
:100CA000C4F840A0A4F844A0A4F846A0B2F5004FB0
:100CB000C4F850A0C4F84CA004D12068016841F4E5
:100CC0008041016020680168490603D4016841F051
:100CD00040010160E068B0F5E06F606823D908B1B9
:100CE000012E1CD1A06B21680088C86006E0206836
:100CF0008168890709D5A16B0988C160A06B801C38
:100D0000A063E08F401EE08709E0FFF709FCA0EB3D
:100D10000800A84202D3681C01D044E055B3E08F1C
:100D20000028E4D134E008B1012E2ED1E08F012853
:100D300004D9A06B21680088C86014E0A16B20680A
:100D400009780173A06B401CA063E08F401EE08710
:100D50001BE02068816889070DD5E18F0129A16B0F
:100D6000EED90988C160A06B801CA063E08F801E53
:100D7000EDE720E017E0FFF7D3FBA0EB0800A84267
:100D800002D3681C01D00EE06DB1E08F0028E0D1E5
:100D900042462946204600F0E9F908B120202066A5
:100DA000A06810B105E0032706E02068C1688068EC
:100DB0000090206E00B1012784F85DB0384684F8B9
:100DC0005CA05CE7401EB0F1807F10B501D301202C
:100DD00010BD4FF0E02460610F21601700F0D2FADF
:100DE0000020A0610721216110BD000001220248FE
:100DF0009102FFF78FBB00000008024010B5FFF71B
:100E0000F5FF00F023F900F005F9012000F058F992
:100E10004FF47A70FFF780FACB2000F051F93920B7
:100E200000F06AF92C2000F067F9002000F064F966
:100E3000342000F061F9022000F05EF9CF2000F0CC
:100E40003FF9002000F058F9C12000F055F930209A
:100E500000F052F9E82000F033F9852000F04CF959
:100E6000002000F049F9782000F046F9EA2000F06F
:100E700027F9002000F040F9002000F03DF9ED20B6
:100E800000F01EF9642000F037F9032000F034F977
:100E9000122000F031F9812000F02EF9F72000F047
:100EA0000FF9202000F028F9C02000F009F92320D4
:100EB00000F022F9C12000F003F9102000F01CF925
:100EC000C52000F0FDF83E2000F016F9282000F0C3
:100ED00013F9C72000F0F4F8862000F00DF9362051
:100EE00000F0EEF8482000F007F93A2000F0E8F8AA
:100EF000552000F001F9B12000F0E2F8002000F0E8
:100F0000FBF8182000F0F8F8B62000F0D9F8082017
:100F100000F0F2F8822000F0EFF8272000F0ECF863
:100F2000F22000F0CDF8002000F0E6F8262000F0D6
:100F3000C7F8012000F0E0F8E02000F0C1F80F2031
:100F400000F0DAF8312000F0D7F82B2000F0D4F8C8
:100F50000C2000F0D1F80E2000F0CEF8082000F0B0
:100F6000CBF84E2000F0C8F8F12000F0C5F837208B
:100F700000F0C2F8072000F0BFF8102000F0BCF825
:100F8000032000F0B9F80E2000F0B6F8092000F0B8
:100F9000B3F8002000F0B0F8E12000F091F8002054
:100FA00000F0AAF80E2000F0A7F8142000F0A4F832
:100FB000032000F0A1F8112000F09EF8072000F0B7
:100FC0009BF8312000F098F8C12000F095F84820F7
:100FD00000F092F8082000F08FF80F2000F08CF855
:100FE0000C2000F089F8312000F086F8362000F05F
:100FF00083F80F2000F080F8112000F061F87820CD
:10100000FFF78AF9292000F05BF8BDE810400020C6
:1010100000F02EB870B501220B4D940228462146EF
:10102000FFF778FAC820FFF777F900222846A110C9
:10103000FFF770FAC820FFF76FF921462846BDE890
:1010400070400122FFF766BA000802400248002201
:101050004FF48071FFF75EBA00080240012301B52A
:1010600002481A466946FFF7F0FD08BD140000204B
:101070002DE9F0410746362000F022F80120FFF765
:101080004BF90E4C4FF4A0764FF0F00567B1012FED
:101090000CD0022F0CD0032F04D1E82000F02CF844
:1010A00066802580BDE8F081482002E02820F5E731
:1010B000882000F021F865802680F3E700000020FA
:1010C00070B50C4D4FF48074002206462146284628
:1010D000FFF720FA002228466100FFF71BFA30468E
:1010E000FFF7BCFF21462846BDE870400122FFF70C
:1010F00011BA00000008024070B50B4C01220646F0
:1011000051022046FFF706FAA5152046002229467F
:10111000FFF700FA3046FFF7A1FF29462046BDE859
:1011200070400122FFF7F6B90008024030B40D4DBF
:101130004FF4E0630C4800214FF482746A15C0E953
:10114000021301610723C0E90512C1610162416216
:10115000C0E90A1301634163C0E9005430BCFFF7E2
:1011600011BD00000050014014000020F8B51546E4
:101170000E4604460B464FF4C0510092002200F088
:1011800019F888B90022334680212046009500F0E6
:101190005CF848B9002233464FF4C0612046009500
:1011A00000F008F8002804D0206E40F020002066EF
:1011B0000320F8BD2DE9F0474FF4C0681D461746DF
:1011C0000E46DDF8209004460CE0464501D107B9F3
:1011D000007B681C06D0FFF7A3F9A0EB0900A8422A
:1011E00008D23DB1206881683140B942EDD100207C
:1011F000BDE8F0872068416821F0E0014160606847
:10120000B0F5827F0BD1A068B0F5004F02D0B0F5E9
:10121000806F04D12068016821F040010160A06A5C
:10122000B0F5005F09D12068016821F40051016028
:101230002068016841F400510160012184F85D10CB
:10124000002084F85C000320D2E72DE9F0411D4620
:1012500017460E460446DDF8188008E0681C06D0E4
:10126000FFF75EF9A0EB0800A8420BD255B1206849
:10127000806836EA000030D00020B842EED100206D
:10128000BDE8F0812068416821F0E00141606068BC
:10129000B0F5827F0BD1A068B0F5004F02D0B0F559
:1012A000806F04D12068016821F040010160A06ACC
:1012B000B0F5005F09D12068016821F40051016098
:1012C0002068016841F400510160012184F85D103B
:1012D000002084F85C000320D2E70120CDE7000065
:1012E00070B594B034216846FEF7DAFF14210DA8DA
:1012F000FEF7D6FF1A48016841F08051016000688E
:1013000000F0805012901748016821F4404141F4E8
:10131000804101600068002510210224009400F43F
:10132000404012900120CDE90645CDE9030108A90E
:10133000684608226423052681E85C00FFF756FA18
:10134000FFF754F90DAA0F20E10282E83100CDE940
:10135000101503210DA8FFF77FF914B070BD000030
:10136000403802400070004005484FF000610368BB
:10137000034A43F470030360803A11607047000031
:1013800088ED00E0090700284FEA116104DB00F155
:10139000E02080F80014704700F00F0000F1E0201A
:1013A00080F8141D704702E008C8121F08C1002A07
:1013B000FAD170477047002001E001C1121F002AD6
:1013C000FBD1704786B0FFF7B1F8FFF789FF142112
:1013D0006846FEF765FF1848016841F0200101608A
:1013E000016801F020010591016841F004010160EC
:1013F00000684FF4E064114D002200F00400214623
:1014000005902846FFF786F8002100940120CDE9D9
:101410000101284603916946FEF790FFFFF786FE1B
:10142000FFF7ECFC0320FFF723FE4FF47A7420460D
:10143000FEF772FFFBE70000303802400008024070
:101440000000000000000000010203040607080974
:10145000701400080000002014000000A61300080B
:10146000841400081400002064040000B61300086F
:10147000F00040010100000010000000000000002A
:041480000024F40050
:04000005080001F9F5
:00000001FF
